{
    "contractName": "LoggingService",
    "abi": [
        {
            "inputs": [
                {
                    "internalType": "string",
                    "name": "version_",
                    "type": "string"
                }
            ],
            "stateMutability": "nonpayable",
            "type": "constructor"
        },
        {
            "anonymous": false,
            "inputs": [
                {
                    "indexed": false,
                    "internalType": "string",
                    "name": "message",
                    "type": "string"
                }
            ],
            "name": "Log",
            "type": "event"
        },
        {
            "inputs": [
                {
                    "internalType": "string",
                    "name": "message",
                    "type": "string"
                }
            ],
            "name": "LogAction",
            "outputs": [],
            "stateMutability": "nonpayable",
            "type": "function"
        }
    ],
    "bytecode": "608060405234801561001057600080fd5b506040516104d73803806104d783398101604081905261002f9161006a565b600080546001600160a01b03191633179055600161004d82826101c2565b5050610281565b634e487b7160e01b600052604160045260246000fd5b6000602080838503121561007d57600080fd5b82516001600160401b038082111561009457600080fd5b818501915085601f8301126100a857600080fd5b8151818111156100ba576100ba610054565b604051601f8201601f19908116603f011681019083821181831017156100e2576100e2610054565b8160405282815288868487010111156100fa57600080fd5b600093505b8284101561011c57848401860151818501870152928501926100ff565b8284111561012d5760008684830101525b98975050505050505050565b600181811c9082168061014d57607f821691505b60208210810361016d57634e487b7160e01b600052602260045260246000fd5b50919050565b601f8211156101bd57600081815260208120601f850160051c8101602086101561019a5750805b601f850160051c820191505b818110156101b9578281556001016101a6565b5050505b505050565b81516001600160401b038111156101db576101db610054565b6101ef816101e98454610139565b84610173565b602080601f831160018114610224576000841561020c5750858301515b600019600386901b1c1916600185901b1785556101b9565b600085815260208120601f198616915b8281101561025357888601518255948401946001909101908401610234565b50858210156102715787850151600019600388901b60f8161c191681555b5050505050600190811b01905550565b610247806102906000396000f3fe608060405234801561001057600080fd5b506004361061002b5760003560e01c8063fd5d482614610030575b600080fd5b61004361003e36600461010b565b610045565b005b6000546001600160a01b031633146100bb5760405162461bcd60e51b815260206004820152602f60248201527f4c6f6720536572766963653a206f6e6c7920746865206f70657261746f72206360448201526e616e206c6f67206d6573736167657360881b606482015260840160405180910390fd5b7fcf34ef537ac33ee1ac626ca1587a0a7e8e51561e5514f8cb36afa1c5102b3bab816040516100ea91906101bc565b60405180910390a150565b634e487b7160e01b600052604160045260246000fd5b60006020828403121561011d57600080fd5b813567ffffffffffffffff8082111561013557600080fd5b818401915084601f83011261014957600080fd5b81358181111561015b5761015b6100f5565b604051601f8201601f19908116603f01168101908382118183101715610183576101836100f5565b8160405282815287602084870101111561019c57600080fd5b826020860160208301376000928101602001929092525095945050505050565b600060208083528351808285015260005b818110156101e9578581018301518582016040015282016101cd565b818111156101fb576000604083870101525b50601f01601f191692909201604001939250505056fea26469706673582212200816fc3c43d53fef103b513fba16a28712f8eec52710befd471c9de8b842b0fc64736f6c634300080f0033",
    "sourcePath": "/Volumes/code/hedera/deca4-will/deliverables/src/contracts/LoggingService.sol",
    "compiler": {
        "name": "solc",
        "version": "0.8.15+commit.e14f2714"
    },
    "functionHashes": {
        "LogAction(string)": "fd5d4826"
    },
    "gasEstimates": {
        "creation": {
            "codeDepositCost": "116600",
            "executionCost": "infinite",
            "totalCost": "infinite"
        },
        "external": {
            "LogAction(string)": "infinite"
        }
    }
}